{
  "_format": "hh-sol-artifact-1",
  "contractName": "TokenSwap",
  "sourceName": "contracts/TokenSwap.sol",
  "abi": [
    {
      "inputs": [
        {
          "internalType": "address",
          "name": "_tokenA",
          "type": "address"
        },
        {
          "internalType": "address",
          "name": "_tokenB",
          "type": "address"
        }
      ],
      "stateMutability": "nonpayable",
      "type": "constructor"
    },
    {
      "inputs": [],
      "name": "owner",
      "outputs": [
        {
          "internalType": "address",
          "name": "",
          "type": "address"
        }
      ],
      "stateMutability": "view",
      "type": "function"
    },
    {
      "inputs": [],
      "name": "rate",
      "outputs": [
        {
          "internalType": "uint256",
          "name": "",
          "type": "uint256"
        }
      ],
      "stateMutability": "view",
      "type": "function"
    },
    {
      "inputs": [
        {
          "internalType": "uint256",
          "name": "_amount",
          "type": "uint256"
        }
      ],
      "name": "swap",
      "outputs": [],
      "stateMutability": "nonpayable",
      "type": "function"
    },
    {
      "inputs": [],
      "name": "tokenA",
      "outputs": [
        {
          "internalType": "contract IERC20",
          "name": "",
          "type": "address"
        }
      ],
      "stateMutability": "view",
      "type": "function"
    },
    {
      "inputs": [],
      "name": "tokenB",
      "outputs": [
        {
          "internalType": "contract IERC20",
          "name": "",
          "type": "address"
        }
      ],
      "stateMutability": "view",
      "type": "function"
    },
    {
      "inputs": [],
      "name": "withdrawTokens",
      "outputs": [],
      "stateMutability": "nonpayable",
      "type": "function"
    }
  ],
  "bytecode": "0x6080604052600160035534801561001557600080fd5b50604051610ec6380380610ec683398181016040528101906100379190610163565b336000806101000a81548173ffffffffffffffffffffffffffffffffffffffff021916908373ffffffffffffffffffffffffffffffffffffffff16021790555081600160006101000a81548173ffffffffffffffffffffffffffffffffffffffff021916908373ffffffffffffffffffffffffffffffffffffffff16021790555080600260006101000a81548173ffffffffffffffffffffffffffffffffffffffff021916908373ffffffffffffffffffffffffffffffffffffffff16021790555050506101a3565b600080fd5b600073ffffffffffffffffffffffffffffffffffffffff82169050919050565b600061013082610105565b9050919050565b61014081610125565b811461014b57600080fd5b50565b60008151905061015d81610137565b92915050565b6000806040838503121561017a57610179610100565b5b60006101888582860161014e565b92505060206101998582860161014e565b9150509250929050565b610d14806101b26000396000f3fe608060405234801561001057600080fd5b50600436106100625760003560e01c80630fc63d10146100675780632c4e722e146100855780635f64b55b146100a35780638d8f2adb146100c15780638da5cb5b146100cb57806394b918de146100e9575b600080fd5b61006f610105565b60405161007c91906108c1565b60405180910390f35b61008d61012b565b60405161009a91906108f5565b60405180910390f35b6100ab610131565b6040516100b891906108c1565b60405180910390f35b6100c9610157565b005b6100d361049f565b6040516100e09190610931565b60405180910390f35b61010360048036038101906100fe919061097d565b6104c3565b005b600160009054906101000a900473ffffffffffffffffffffffffffffffffffffffff1681565b60035481565b600260009054906101000a900473ffffffffffffffffffffffffffffffffffffffff1681565b60008054906101000a900473ffffffffffffffffffffffffffffffffffffffff1673ffffffffffffffffffffffffffffffffffffffff163373ffffffffffffffffffffffffffffffffffffffff16146101e5576040517f08c379a00000000000000000000000000000000000000000000000000000000081526004016101dc90610a07565b60405180910390fd5b600160009054906101000a900473ffffffffffffffffffffffffffffffffffffffff1673ffffffffffffffffffffffffffffffffffffffff1663a9059cbb60008054906101000a900473ffffffffffffffffffffffffffffffffffffffff16600160009054906101000a900473ffffffffffffffffffffffffffffffffffffffff1673ffffffffffffffffffffffffffffffffffffffff166370a08231306040518263ffffffff1660e01b815260040161029f9190610931565b602060405180830381865afa1580156102bc573d6000803e3d6000fd5b505050506040513d601f19601f820116820180604052508101906102e09190610a3c565b6040518363ffffffff1660e01b81526004016102fd929190610a69565b6020604051808303816000875af115801561031c573d6000803e3d6000fd5b505050506040513d601f19601f820116820180604052508101906103409190610aca565b50600260009054906101000a900473ffffffffffffffffffffffffffffffffffffffff1673ffffffffffffffffffffffffffffffffffffffff1663a9059cbb60008054906101000a900473ffffffffffffffffffffffffffffffffffffffff16600260009054906101000a900473ffffffffffffffffffffffffffffffffffffffff1673ffffffffffffffffffffffffffffffffffffffff166370a08231306040518263ffffffff1660e01b81526004016103fb9190610931565b602060405180830381865afa158015610418573d6000803e3d6000fd5b505050506040513d601f19601f8201168201806040525081019061043c9190610a3c565b6040518363ffffffff1660e01b8152600401610459929190610a69565b6020604051808303816000875af1158015610478573d6000803e3d6000fd5b505050506040513d601f19601f8201168201806040525081019061049c9190610aca565b50565b60008054906101000a900473ffffffffffffffffffffffffffffffffffffffff1681565b80600160009054906101000a900473ffffffffffffffffffffffffffffffffffffffff1673ffffffffffffffffffffffffffffffffffffffff166370a08231336040518263ffffffff1660e01b815260040161051f9190610931565b602060405180830381865afa15801561053c573d6000803e3d6000fd5b505050506040513d601f19601f820116820180604052508101906105609190610a3c565b10156105a1576040517f08c379a000000000000000000000000000000000000000000000000000000000815260040161059890610b43565b60405180910390fd5b80600260009054906101000a900473ffffffffffffffffffffffffffffffffffffffff1673ffffffffffffffffffffffffffffffffffffffff166370a08231306040518263ffffffff1660e01b81526004016105fd9190610931565b602060405180830381865afa15801561061a573d6000803e3d6000fd5b505050506040513d601f19601f8201168201806040525081019061063e9190610a3c565b101561067f576040517f08c379a000000000000000000000000000000000000000000000000000000000815260040161067690610baf565b60405180910390fd5b600160009054906101000a900473ffffffffffffffffffffffffffffffffffffffff1673ffffffffffffffffffffffffffffffffffffffff166323b872dd3330846040518463ffffffff1660e01b81526004016106de93929190610bcf565b6020604051808303816000875af11580156106fd573d6000803e3d6000fd5b505050506040513d601f19601f820116820180604052508101906107219190610aca565b610760576040517f08c379a000000000000000000000000000000000000000000000000000000000815260040161075790610c52565b60405180910390fd5b600260009054906101000a900473ffffffffffffffffffffffffffffffffffffffff1673ffffffffffffffffffffffffffffffffffffffff1663a9059cbb33836040518363ffffffff1660e01b81526004016107bd929190610a69565b6020604051808303816000875af11580156107dc573d6000803e3d6000fd5b505050506040513d601f19601f820116820180604052508101906108009190610aca565b61083f576040517f08c379a000000000000000000000000000000000000000000000000000000000815260040161083690610cbe565b60405180910390fd5b50565b600073ffffffffffffffffffffffffffffffffffffffff82169050919050565b6000819050919050565b600061088761088261087d84610842565b610862565b610842565b9050919050565b60006108998261086c565b9050919050565b60006108ab8261088e565b9050919050565b6108bb816108a0565b82525050565b60006020820190506108d660008301846108b2565b92915050565b6000819050919050565b6108ef816108dc565b82525050565b600060208201905061090a60008301846108e6565b92915050565b600061091b82610842565b9050919050565b61092b81610910565b82525050565b60006020820190506109466000830184610922565b92915050565b600080fd5b61095a816108dc565b811461096557600080fd5b50565b60008135905061097781610951565b92915050565b6000602082840312156109935761099261094c565b5b60006109a184828501610968565b91505092915050565b600082825260208201905092915050565b7f4f6e6c79206f776e65722063616e207769746864726177000000000000000000600082015250565b60006109f16017836109aa565b91506109fc826109bb565b602082019050919050565b60006020820190508181036000830152610a20816109e4565b9050919050565b600081519050610a3681610951565b92915050565b600060208284031215610a5257610a5161094c565b5b6000610a6084828501610a27565b91505092915050565b6000604082019050610a7e6000830185610922565b610a8b60208301846108e6565b9392505050565b60008115159050919050565b610aa781610a92565b8114610ab257600080fd5b50565b600081519050610ac481610a9e565b92915050565b600060208284031215610ae057610adf61094c565b5b6000610aee84828501610ab5565b91505092915050565b7f4e6f7420656e6f75676820546f6b656e41000000000000000000000000000000600082015250565b6000610b2d6011836109aa565b9150610b3882610af7565b602082019050919050565b60006020820190508181036000830152610b5c81610b20565b9050919050565b7f4e6f7420656e6f75676820546f6b656e4220696e20706f6f6c00000000000000600082015250565b6000610b996019836109aa565b9150610ba482610b63565b602082019050919050565b60006020820190508181036000830152610bc881610b8c565b9050919050565b6000606082019050610be46000830186610922565b610bf16020830185610922565b610bfe60408301846108e6565b949350505050565b7f546f6b656e41207472616e73666572206661696c656400000000000000000000600082015250565b6000610c3c6016836109aa565b9150610c4782610c06565b602082019050919050565b60006020820190508181036000830152610c6b81610c2f565b9050919050565b7f546f6b656e42207472616e73666572206661696c656400000000000000000000600082015250565b6000610ca86016836109aa565b9150610cb382610c72565b602082019050919050565b60006020820190508181036000830152610cd781610c9b565b905091905056fea264697066735822122064eff45039e4348bb148e4103ea0b8a1a18b4d21b522ef19678cdc1f01e0a02364736f6c634300081c0033",
  "linkReferences": {},
  "deployedLinkReferences": {}
}